{
  "address": "0x8D30cC17A21b360607894906EAF182c818A20105",
  "abi": [
    {
      "anonymous": false,
      "inputs": [
        {
          "indexed": true,
          "internalType": "address",
          "name": "previousOwner",
          "type": "address"
        },
        {
          "indexed": true,
          "internalType": "address",
          "name": "newOwner",
          "type": "address"
        }
      ],
      "name": "OwnershipTransferred",
      "type": "event"
    },
    {
      "inputs": [],
      "name": "owner",
      "outputs": [
        {
          "internalType": "address",
          "name": "",
          "type": "address"
        }
      ],
      "stateMutability": "view",
      "type": "function"
    },
    {
      "inputs": [],
      "name": "renounceOwnership",
      "outputs": [],
      "stateMutability": "nonpayable",
      "type": "function"
    },
    {
      "inputs": [
        {
          "internalType": "address",
          "name": "_tokenAddress",
          "type": "address"
        },
        {
          "internalType": "address",
          "name": "_recipient",
          "type": "address"
        },
        {
          "internalType": "uint256",
          "name": "_repayment",
          "type": "uint256"
        }
      ],
      "name": "sendBackTokens",
      "outputs": [],
      "stateMutability": "nonpayable",
      "type": "function"
    },
    {
      "inputs": [
        {
          "internalType": "address",
          "name": "newOwner",
          "type": "address"
        }
      ],
      "name": "transferOwnership",
      "outputs": [],
      "stateMutability": "nonpayable",
      "type": "function"
    }
  ],
  "transactionHash": "0x094cfaf1f8faf72b96a1d7384d79d9b0964123a746a5cb836ccec780ecb3400d",
  "args": [],
  "solcInputHash": "426b85d6d2ca726e20a7ece9d695fd03",
  "bytecode": "0x608060405234801561001057600080fd5b5061002161001c610026565b61002a565b61007a565b3390565b600080546001600160a01b038381166001600160a01b0319831681178455604051919092169283917f8be0079c531659141344cd1fd0a4f28419497f9722a3daafe3b4186f6b6457e09190a35050565b6103d7806100896000396000f3fe608060405234801561001057600080fd5b506004361061004c5760003560e01c806301c806cc14610051578063715018a6146100665780638da5cb5b1461006e578063f2fde38b1461008c575b600080fd5b61006461005f366004610293565b61009f565b005b61006461012e565b610076610182565b60405161008391906102ee565b60405180910390f35b61006461009a366004610272565b610191565b826001600160a01b03166323b872dd6100b6610182565b84846040518463ffffffff1660e01b81526004016100d693929190610302565b602060405180830381600087803b1580156100f057600080fd5b505af1158015610104573d6000803e3d6000fd5b505050506040513d601f19601f8201168201806040525081019061012891906102ce565b50505050565b610136610202565b6001600160a01b0316610147610182565b6001600160a01b0316146101765760405162461bcd60e51b815260040161016d9061036c565b60405180910390fd5b6101806000610206565b565b6000546001600160a01b031690565b610199610202565b6001600160a01b03166101aa610182565b6001600160a01b0316146101d05760405162461bcd60e51b815260040161016d9061036c565b6001600160a01b0381166101f65760405162461bcd60e51b815260040161016d90610326565b6101ff81610206565b50565b3390565b600080546001600160a01b038381166001600160a01b0319831681178455604051919092169283917f8be0079c531659141344cd1fd0a4f28419497f9722a3daafe3b4186f6b6457e09190a35050565b80356001600160a01b038116811461026d57600080fd5b919050565b600060208284031215610283578081fd5b61028c82610256565b9392505050565b6000806000606084860312156102a7578182fd5b6102b084610256565b92506102be60208501610256565b9150604084013590509250925092565b6000602082840312156102df578081fd5b8151801515811461028c578182fd5b6001600160a01b0391909116815260200190565b6001600160a01b039384168152919092166020820152604081019190915260600190565b60208082526026908201527f4f776e61626c653a206e6577206f776e657220697320746865207a65726f206160408201526564647265737360d01b606082015260800190565b6020808252818101527f4f776e61626c653a2063616c6c6572206973206e6f7420746865206f776e657260408201526060019056fea26469706673582212209e8e7c25abfa4b19dd8f37ab8dbeb3d3eb55f89d6798abe6168b91264ddb383264736f6c63430008010033",
  "devdoc": {
    "kind": "dev",
    "methods": {
      "owner()": {
        "details": "Returns the address of the current owner."
      },
      "renounceOwnership()": {
        "details": "Leaves the contract without owner. It will not be possible to call `onlyOwner` functions anymore. Can only be called by the current owner. NOTE: Renouncing ownership will leave the contract without an owner, thereby removing any functionality that is only available to the owner."
      },
      "transferOwnership(address)": {
        "details": "Transfers ownership of the contract to a new account (`newOwner`). Can only be called by the current owner."
      }
    },
    "version": 1
  },
  "userdoc": {
    "kind": "user",
    "methods": {},
    "version": 1
  },
  "storageLayout": {
    "storage": [
      {
        "astId": 591,
        "contract": "contracts/Borrowers.sol:Borrower",
        "label": "_owner",
        "offset": 0,
        "slot": "0",
        "type": "t_address"
      }
    ],
    "types": {
      "t_address": {
        "encoding": "inplace",
        "label": "address",
        "numberOfBytes": "20"
      }
    }
  }
}