{
  "address": "0x8e527901dd0BC7Bd3B51bD4609ecCAfd470c7B62",
  "abi": [
    {
      "inputs": [
        {
          "internalType": "uint256",
          "name": "_fee",
          "type": "uint256"
        },
        {
          "internalType": "address",
          "name": "_poolAddress",
          "type": "address"
        }
      ],
      "stateMutability": "nonpayable",
      "type": "constructor"
    },
    {
      "anonymous": false,
      "inputs": [
        {
          "indexed": true,
          "internalType": "address",
          "name": "previousOwner",
          "type": "address"
        },
        {
          "indexed": true,
          "internalType": "address",
          "name": "newOwner",
          "type": "address"
        }
      ],
      "name": "OwnershipTransferred",
      "type": "event"
    },
    {
      "inputs": [
        {
          "internalType": "address",
          "name": "_userContract",
          "type": "address"
        },
        {
          "internalType": "address",
          "name": "_tokenAddress",
          "type": "address"
        },
        {
          "internalType": "uint256",
          "name": "_amount",
          "type": "uint256"
        }
      ],
      "name": "borrowTokens",
      "outputs": [],
      "stateMutability": "nonpayable",
      "type": "function"
    },
    {
      "inputs": [],
      "name": "fee",
      "outputs": [
        {
          "internalType": "uint256",
          "name": "",
          "type": "uint256"
        }
      ],
      "stateMutability": "view",
      "type": "function"
    },
    {
      "inputs": [],
      "name": "owner",
      "outputs": [
        {
          "internalType": "address",
          "name": "",
          "type": "address"
        }
      ],
      "stateMutability": "view",
      "type": "function"
    },
    {
      "inputs": [],
      "name": "poolAddress",
      "outputs": [
        {
          "internalType": "address",
          "name": "",
          "type": "address"
        }
      ],
      "stateMutability": "view",
      "type": "function"
    },
    {
      "inputs": [],
      "name": "renounceOwnership",
      "outputs": [],
      "stateMutability": "nonpayable",
      "type": "function"
    },
    {
      "inputs": [
        {
          "internalType": "address",
          "name": "newOwner",
          "type": "address"
        }
      ],
      "name": "transferOwnership",
      "outputs": [],
      "stateMutability": "nonpayable",
      "type": "function"
    }
  ],
  "transactionHash": "0x5fae096eda3b1340d8c3db691843301a47adba045b0a619ebf36a0ddbd890abe",
  "args": [
    100,
    "0x3DA5FD1124156a07b7Fb5555e655a89C6407D9D2"
  ],
  "solcInputHash": "426b85d6d2ca726e20a7ece9d695fd03",
  "bytecode": "0x608060405234801561001057600080fd5b50604051610adf380380610adf83398101604081905261002f916100c1565b61003f61003a61006d565b610071565b60018055600291909155600380546001600160a01b0319166001600160a01b039092169190911790556100fc565b3390565b600080546001600160a01b038381166001600160a01b0319831681178455604051919092169283917f8be0079c531659141344cd1fd0a4f28419497f9722a3daafe3b4186f6b6457e09190a35050565b600080604083850312156100d3578182fd5b825160208401519092506001600160a01b03811681146100f1578182fd5b809150509250929050565b6109d48061010b6000396000f3fe608060405234801561001057600080fd5b50600436106100625760003560e01c80631755ff2114610067578063715018a6146100855780638da5cb5b1461008f578063bd9e968314610097578063ddca3f43146100aa578063f2fde38b146100bf575b600080fd5b61006f6100d2565b60405161007c9190610783565b60405180910390f35b61008d6100e1565b005b61006f610135565b61008d6100a5366004610710565b610144565b6100b2610608565b60405161007c9190610951565b61008d6100cd3660046106ef565b61060e565b6003546001600160a01b031681565b6100e961067f565b6001600160a01b03166100fa610135565b6001600160a01b0316146101295760405162461bcd60e51b8152600401610120906108e5565b60405180910390fd5b6101336000610683565b565b6000546001600160a01b031690565b600260015414156101675760405162461bcd60e51b81526004016101209061091a565b60026001556003546040516370a0823160e01b815282916001600160a01b03808616926370a082319261019e921690600401610783565b60206040518083038186803b1580156101b657600080fd5b505afa1580156101ca573d6000803e3d6000fd5b505050506040513d601f19601f820116820180604052508101906101ee919061076b565b101561020c5760405162461bcd60e51b8152600401610120906107d5565b600354604051636eb1769f60e11b815282916001600160a01b038086169263dd62ed3e926102409216903090600401610797565b60206040518083038186803b15801561025857600080fd5b505afa15801561026c573d6000803e3d6000fd5b505050506040513d601f19601f82011682018060405250810190610290919061076b565b10156102ae5760405162461bcd60e51b81526004016101209061084b565b6003546040516323b872dd60e01b81526001600160a01b03848116926323b872dd926102e49290911690339086906004016107b1565b602060405180830381600087803b1580156102fe57600080fd5b505af1158015610312573d6000803e3d6000fd5b505050506040513d601f19601f82011682018060405250810190610336919061074b565b506003546040516370a0823160e01b81526000916001600160a01b03808616926370a082319261036a921690600401610783565b60206040518083038186803b15801561038257600080fd5b505afa158015610396573d6000803e3d6000fd5b505050506040513d601f19601f820116820180604052508101906103ba919061076b565b9050600082600254846103cd919061097e565b6103d7919061095a565b6040516370a0823160e01b81529091506001600160a01b038516906370a0823190610406903390600401610783565b60206040518083038186803b15801561041e57600080fd5b505afa158015610432573d6000803e3d6000fd5b505050506040513d601f19601f82011682018060405250810190610456919061076b565b8111156104755760405162461bcd60e51b815260040161012090610879565b600354604051627201b360e21b81526001600160a01b03808816926301c806cc926104a8928992169086906004016107b1565b600060405180830381600087803b1580156104c257600080fd5b505af11580156104d6573d6000803e3d6000fd5b50506003546040516370a0823160e01b8152600093506001600160a01b0380891693506370a082319261050e92911690600401610783565b60206040518083038186803b15801561052657600080fd5b505afa15801561053a573d6000803e3d6000fd5b505050506040513d601f19601f8201168201806040525081019061055e919061076b565b90508061056b838561095a565b146105885760405162461bcd60e51b8152600401610120906108ae565b600060025485610598919061097e565b60035460405163940a4e4560e01b81529192506001600160a01b03169063940a4e45906105c9908490600401610951565b600060405180830381600087803b1580156105e357600080fd5b505af11580156105f7573d6000803e3d6000fd5b505060018055505050505050505050565b60025481565b61061661067f565b6001600160a01b0316610627610135565b6001600160a01b03161461064d5760405162461bcd60e51b8152600401610120906108e5565b6001600160a01b0381166106735760405162461bcd60e51b815260040161012090610805565b61067c81610683565b50565b3390565b600080546001600160a01b038381166001600160a01b0319831681178455604051919092169283917f8be0079c531659141344cd1fd0a4f28419497f9722a3daafe3b4186f6b6457e09190a35050565b80356001600160a01b03811681146106ea57600080fd5b919050565b600060208284031215610700578081fd5b610709826106d3565b9392505050565b600080600060608486031215610724578182fd5b61072d846106d3565b925061073b602085016106d3565b9150604084013590509250925092565b60006020828403121561075c578081fd5b81518015158114610709578182fd5b60006020828403121561077c578081fd5b5051919050565b6001600160a01b0391909116815260200190565b6001600160a01b0392831681529116602082015260400190565b6001600160a01b039384168152919092166020820152604081019190915260600190565b602080825260169082015275416d6f756e7420657863656564732062616c616e636560501b604082015260600190565b60208082526026908201527f4f776e61626c653a206e6577206f776e657220697320746865207a65726f206160408201526564647265737360d01b606082015260800190565b602080825260149082015273105b1b1bddd85b98d9481a5cc81b9bdd081cd95d60621b604082015260600190565b6020808252818101527f596f7520646f6e27742068617665206e6f7420656e6f75676820746f6b656e73604082015260600190565b60208082526018908201527f496e636f72726563742072657475726e65642076616c75650000000000000000604082015260600190565b6020808252818101527f4f776e61626c653a2063616c6c6572206973206e6f7420746865206f776e6572604082015260600190565b6020808252601f908201527f5265656e7472616e637947756172643a207265656e7472616e742063616c6c00604082015260600190565b90815260200190565b6000821982111561097957634e487b7160e01b81526011600452602481fd5b500190565b60008261099957634e487b7160e01b81526012600452602481fd5b50049056fea2646970667358221220e5faadc9e2dfb3268dfbba578f82ba56bf0acda57d1e5f964a24506db36c10e964736f6c63430008010033",
  "devdoc": {
    "kind": "dev",
    "methods": {
      "owner()": {
        "details": "Returns the address of the current owner."
      },
      "renounceOwnership()": {
        "details": "Leaves the contract without owner. It will not be possible to call `onlyOwner` functions anymore. Can only be called by the current owner. NOTE: Renouncing ownership will leave the contract without an owner, thereby removing any functionality that is only available to the owner."
      },
      "transferOwnership(address)": {
        "details": "Transfers ownership of the contract to a new account (`newOwner`). Can only be called by the current owner."
      }
    },
    "version": 1
  },
  "userdoc": {
    "kind": "user",
    "methods": {},
    "version": 1
  },
  "storageLayout": {
    "storage": [
      {
        "astId": 591,
        "contract": "contracts/FlashLoan.sol:FlashLoan",
        "label": "_owner",
        "offset": 0,
        "slot": "0",
        "type": "t_address"
      },
      {
        "astId": 790,
        "contract": "contracts/FlashLoan.sol:FlashLoan",
        "label": "_status",
        "offset": 0,
        "slot": "1",
        "type": "t_uint256"
      },
      {
        "astId": 2685,
        "contract": "contracts/FlashLoan.sol:FlashLoan",
        "label": "fee",
        "offset": 0,
        "slot": "2",
        "type": "t_uint256"
      },
      {
        "astId": 2687,
        "contract": "contracts/FlashLoan.sol:FlashLoan",
        "label": "poolAddress",
        "offset": 0,
        "slot": "3",
        "type": "t_address"
      }
    ],
    "types": {
      "t_address": {
        "encoding": "inplace",
        "label": "address",
        "numberOfBytes": "20"
      },
      "t_uint256": {
        "encoding": "inplace",
        "label": "uint256",
        "numberOfBytes": "32"
      }
    }
  }
}