{
  "address": "0x5749cBA182BDd65DaBE0EFDC775185d375d04624",
  "abi": [
    {
      "inputs": [
        {
          "internalType": "string",
          "name": "_name",
          "type": "string"
        },
        {
          "internalType": "string",
          "name": "_symbol",
          "type": "string"
        },
        {
          "internalType": "address",
          "name": "_poolAddress",
          "type": "address"
        },
        {
          "internalType": "address",
          "name": "_tokenAddress",
          "type": "address"
        }
      ],
      "stateMutability": "nonpayable",
      "type": "constructor"
    },
    {
      "anonymous": false,
      "inputs": [
        {
          "indexed": true,
          "internalType": "address",
          "name": "owner",
          "type": "address"
        },
        {
          "indexed": true,
          "internalType": "address",
          "name": "spender",
          "type": "address"
        },
        {
          "indexed": false,
          "internalType": "uint256",
          "name": "value",
          "type": "uint256"
        }
      ],
      "name": "Approval",
      "type": "event"
    },
    {
      "anonymous": false,
      "inputs": [
        {
          "indexed": true,
          "internalType": "address",
          "name": "previousOwner",
          "type": "address"
        },
        {
          "indexed": true,
          "internalType": "address",
          "name": "newOwner",
          "type": "address"
        }
      ],
      "name": "OwnershipTransferred",
      "type": "event"
    },
    {
      "anonymous": false,
      "inputs": [
        {
          "indexed": false,
          "internalType": "address",
          "name": "account",
          "type": "address"
        }
      ],
      "name": "Paused",
      "type": "event"
    },
    {
      "anonymous": false,
      "inputs": [
        {
          "indexed": true,
          "internalType": "bytes32",
          "name": "role",
          "type": "bytes32"
        },
        {
          "indexed": true,
          "internalType": "bytes32",
          "name": "previousAdminRole",
          "type": "bytes32"
        },
        {
          "indexed": true,
          "internalType": "bytes32",
          "name": "newAdminRole",
          "type": "bytes32"
        }
      ],
      "name": "RoleAdminChanged",
      "type": "event"
    },
    {
      "anonymous": false,
      "inputs": [
        {
          "indexed": true,
          "internalType": "bytes32",
          "name": "role",
          "type": "bytes32"
        },
        {
          "indexed": true,
          "internalType": "address",
          "name": "account",
          "type": "address"
        },
        {
          "indexed": true,
          "internalType": "address",
          "name": "sender",
          "type": "address"
        }
      ],
      "name": "RoleGranted",
      "type": "event"
    },
    {
      "anonymous": false,
      "inputs": [
        {
          "indexed": true,
          "internalType": "bytes32",
          "name": "role",
          "type": "bytes32"
        },
        {
          "indexed": true,
          "internalType": "address",
          "name": "account",
          "type": "address"
        },
        {
          "indexed": true,
          "internalType": "address",
          "name": "sender",
          "type": "address"
        }
      ],
      "name": "RoleRevoked",
      "type": "event"
    },
    {
      "anonymous": false,
      "inputs": [
        {
          "indexed": true,
          "internalType": "address",
          "name": "from",
          "type": "address"
        },
        {
          "indexed": true,
          "internalType": "address",
          "name": "to",
          "type": "address"
        },
        {
          "indexed": false,
          "internalType": "uint256",
          "name": "value",
          "type": "uint256"
        }
      ],
      "name": "Transfer",
      "type": "event"
    },
    {
      "anonymous": false,
      "inputs": [
        {
          "indexed": false,
          "internalType": "address",
          "name": "account",
          "type": "address"
        }
      ],
      "name": "Unpaused",
      "type": "event"
    },
    {
      "inputs": [],
      "name": "DEFAULT_ADMIN_ROLE",
      "outputs": [
        {
          "internalType": "bytes32",
          "name": "",
          "type": "bytes32"
        }
      ],
      "stateMutability": "view",
      "type": "function"
    },
    {
      "inputs": [],
      "name": "MINTER_ROLE",
      "outputs": [
        {
          "internalType": "bytes32",
          "name": "",
          "type": "bytes32"
        }
      ],
      "stateMutability": "view",
      "type": "function"
    },
    {
      "inputs": [],
      "name": "PAUSER_ROLE",
      "outputs": [
        {
          "internalType": "bytes32",
          "name": "",
          "type": "bytes32"
        }
      ],
      "stateMutability": "view",
      "type": "function"
    },
    {
      "inputs": [
        {
          "internalType": "address",
          "name": "owner",
          "type": "address"
        },
        {
          "internalType": "address",
          "name": "spender",
          "type": "address"
        }
      ],
      "name": "allowance",
      "outputs": [
        {
          "internalType": "uint256",
          "name": "",
          "type": "uint256"
        }
      ],
      "stateMutability": "view",
      "type": "function"
    },
    {
      "inputs": [
        {
          "internalType": "address",
          "name": "spender",
          "type": "address"
        },
        {
          "internalType": "uint256",
          "name": "amount",
          "type": "uint256"
        }
      ],
      "name": "approve",
      "outputs": [
        {
          "internalType": "bool",
          "name": "",
          "type": "bool"
        }
      ],
      "stateMutability": "nonpayable",
      "type": "function"
    },
    {
      "inputs": [
        {
          "internalType": "address",
          "name": "account",
          "type": "address"
        }
      ],
      "name": "balanceOf",
      "outputs": [
        {
          "internalType": "uint256",
          "name": "",
          "type": "uint256"
        }
      ],
      "stateMutability": "view",
      "type": "function"
    },
    {
      "inputs": [
        {
          "internalType": "uint256",
          "name": "amount",
          "type": "uint256"
        }
      ],
      "name": "burn",
      "outputs": [],
      "stateMutability": "nonpayable",
      "type": "function"
    },
    {
      "inputs": [
        {
          "internalType": "address",
          "name": "account",
          "type": "address"
        },
        {
          "internalType": "uint256",
          "name": "amount",
          "type": "uint256"
        }
      ],
      "name": "burnFrom",
      "outputs": [],
      "stateMutability": "nonpayable",
      "type": "function"
    },
    {
      "inputs": [],
      "name": "collectRewards",
      "outputs": [],
      "stateMutability": "nonpayable",
      "type": "function"
    },
    {
      "inputs": [],
      "name": "decimals",
      "outputs": [
        {
          "internalType": "uint8",
          "name": "",
          "type": "uint8"
        }
      ],
      "stateMutability": "view",
      "type": "function"
    },
    {
      "inputs": [
        {
          "internalType": "address",
          "name": "spender",
          "type": "address"
        },
        {
          "internalType": "uint256",
          "name": "subtractedValue",
          "type": "uint256"
        }
      ],
      "name": "decreaseAllowance",
      "outputs": [
        {
          "internalType": "bool",
          "name": "",
          "type": "bool"
        }
      ],
      "stateMutability": "nonpayable",
      "type": "function"
    },
    {
      "inputs": [
        {
          "internalType": "bytes32",
          "name": "role",
          "type": "bytes32"
        }
      ],
      "name": "getRoleAdmin",
      "outputs": [
        {
          "internalType": "bytes32",
          "name": "",
          "type": "bytes32"
        }
      ],
      "stateMutability": "view",
      "type": "function"
    },
    {
      "inputs": [
        {
          "internalType": "bytes32",
          "name": "role",
          "type": "bytes32"
        },
        {
          "internalType": "uint256",
          "name": "index",
          "type": "uint256"
        }
      ],
      "name": "getRoleMember",
      "outputs": [
        {
          "internalType": "address",
          "name": "",
          "type": "address"
        }
      ],
      "stateMutability": "view",
      "type": "function"
    },
    {
      "inputs": [
        {
          "internalType": "bytes32",
          "name": "role",
          "type": "bytes32"
        }
      ],
      "name": "getRoleMemberCount",
      "outputs": [
        {
          "internalType": "uint256",
          "name": "",
          "type": "uint256"
        }
      ],
      "stateMutability": "view",
      "type": "function"
    },
    {
      "inputs": [],
      "name": "grantPoolRole",
      "outputs": [],
      "stateMutability": "nonpayable",
      "type": "function"
    },
    {
      "inputs": [
        {
          "internalType": "bytes32",
          "name": "role",
          "type": "bytes32"
        },
        {
          "internalType": "address",
          "name": "account",
          "type": "address"
        }
      ],
      "name": "grantRole",
      "outputs": [],
      "stateMutability": "nonpayable",
      "type": "function"
    },
    {
      "inputs": [
        {
          "internalType": "bytes32",
          "name": "role",
          "type": "bytes32"
        },
        {
          "internalType": "address",
          "name": "account",
          "type": "address"
        }
      ],
      "name": "hasRole",
      "outputs": [
        {
          "internalType": "bool",
          "name": "",
          "type": "bool"
        }
      ],
      "stateMutability": "view",
      "type": "function"
    },
    {
      "inputs": [
        {
          "internalType": "address",
          "name": "spender",
          "type": "address"
        },
        {
          "internalType": "uint256",
          "name": "addedValue",
          "type": "uint256"
        }
      ],
      "name": "increaseAllowance",
      "outputs": [
        {
          "internalType": "bool",
          "name": "",
          "type": "bool"
        }
      ],
      "stateMutability": "nonpayable",
      "type": "function"
    },
    {
      "inputs": [
        {
          "internalType": "address",
          "name": "to",
          "type": "address"
        },
        {
          "internalType": "uint256",
          "name": "amount",
          "type": "uint256"
        }
      ],
      "name": "mint",
      "outputs": [],
      "stateMutability": "nonpayable",
      "type": "function"
    },
    {
      "inputs": [],
      "name": "name",
      "outputs": [
        {
          "internalType": "string",
          "name": "",
          "type": "string"
        }
      ],
      "stateMutability": "view",
      "type": "function"
    },
    {
      "inputs": [],
      "name": "owner",
      "outputs": [
        {
          "internalType": "address",
          "name": "",
          "type": "address"
        }
      ],
      "stateMutability": "view",
      "type": "function"
    },
    {
      "inputs": [],
      "name": "pause",
      "outputs": [],
      "stateMutability": "nonpayable",
      "type": "function"
    },
    {
      "inputs": [],
      "name": "paused",
      "outputs": [
        {
          "internalType": "bool",
          "name": "",
          "type": "bool"
        }
      ],
      "stateMutability": "view",
      "type": "function"
    },
    {
      "inputs": [],
      "name": "poolAddress",
      "outputs": [
        {
          "internalType": "address",
          "name": "",
          "type": "address"
        }
      ],
      "stateMutability": "view",
      "type": "function"
    },
    {
      "inputs": [],
      "name": "renounceOwnership",
      "outputs": [],
      "stateMutability": "nonpayable",
      "type": "function"
    },
    {
      "inputs": [
        {
          "internalType": "bytes32",
          "name": "role",
          "type": "bytes32"
        },
        {
          "internalType": "address",
          "name": "account",
          "type": "address"
        }
      ],
      "name": "renounceRole",
      "outputs": [],
      "stateMutability": "nonpayable",
      "type": "function"
    },
    {
      "inputs": [
        {
          "internalType": "bytes32",
          "name": "role",
          "type": "bytes32"
        },
        {
          "internalType": "address",
          "name": "account",
          "type": "address"
        }
      ],
      "name": "revokeRole",
      "outputs": [],
      "stateMutability": "nonpayable",
      "type": "function"
    },
    {
      "inputs": [
        {
          "internalType": "bytes4",
          "name": "interfaceId",
          "type": "bytes4"
        }
      ],
      "name": "supportsInterface",
      "outputs": [
        {
          "internalType": "bool",
          "name": "",
          "type": "bool"
        }
      ],
      "stateMutability": "view",
      "type": "function"
    },
    {
      "inputs": [],
      "name": "symbol",
      "outputs": [
        {
          "internalType": "string",
          "name": "",
          "type": "string"
        }
      ],
      "stateMutability": "view",
      "type": "function"
    },
    {
      "inputs": [],
      "name": "tokenAddress",
      "outputs": [
        {
          "internalType": "address",
          "name": "",
          "type": "address"
        }
      ],
      "stateMutability": "view",
      "type": "function"
    },
    {
      "inputs": [],
      "name": "totalSupply",
      "outputs": [
        {
          "internalType": "uint256",
          "name": "",
          "type": "uint256"
        }
      ],
      "stateMutability": "view",
      "type": "function"
    },
    {
      "inputs": [
        {
          "internalType": "address",
          "name": "recipient",
          "type": "address"
        },
        {
          "internalType": "uint256",
          "name": "amount",
          "type": "uint256"
        }
      ],
      "name": "transfer",
      "outputs": [
        {
          "internalType": "bool",
          "name": "",
          "type": "bool"
        }
      ],
      "stateMutability": "nonpayable",
      "type": "function"
    },
    {
      "inputs": [
        {
          "internalType": "address",
          "name": "sender",
          "type": "address"
        },
        {
          "internalType": "address",
          "name": "recipient",
          "type": "address"
        },
        {
          "internalType": "uint256",
          "name": "amount",
          "type": "uint256"
        }
      ],
      "name": "transferFrom",
      "outputs": [
        {
          "internalType": "bool",
          "name": "",
          "type": "bool"
        }
      ],
      "stateMutability": "nonpayable",
      "type": "function"
    },
    {
      "inputs": [
        {
          "internalType": "address",
          "name": "newOwner",
          "type": "address"
        }
      ],
      "name": "transferOwnership",
      "outputs": [],
      "stateMutability": "nonpayable",
      "type": "function"
    },
    {
      "inputs": [],
      "name": "unpause",
      "outputs": [],
      "stateMutability": "nonpayable",
      "type": "function"
    }
  ],
  "transactionHash": "0x99d527d07639a2940b48b0653481fad08b513dd62cfaf921b206f2ad6dc5a896",
  "args": [
    "LpToken",
    "LPT",
    "0x3DA5FD1124156a07b7Fb5555e655a89C6407D9D2",
    "0xD4c458fBd4a819F329D1649c6Ba0B1F30A078e62"
  ],
  "solcInputHash": "426b85d6d2ca726e20a7ece9d695fd03",
  "bytecode": "0x60806040523480156200001157600080fd5b506040516200295738038062002957833981016040819052620000349162000494565b838381818160059080519060200190620000509291906200031e565b508051620000669060069060208401906200031e565b50506007805460ff19169055506200008960006200008362000133565b62000137565b620000b87f9f2df0fed2c77648de5860a4cc508cd0818c85b8b8a1ab4ceeef8d981c8956a66200008362000133565b620000e77f65d7a28e3265b37a6474929f336521b332c1681b933f6cb9f3376673440d862a6200008362000133565b50620000fe9050620000f862000133565b6200017a565b600880546001600160a01b039384166001600160a01b0319918216179091556009805492909316911617905550620005739050565b3390565b6200014e8282620001d460201b62000ae51760201c565b60008281526001602090815260409091206200017591839062000aef620001e4821b17901c565b505050565b600780546001600160a01b03838116610100818102610100600160a81b031985161790945560405193909204169182907f8be0079c531659141344cd1fd0a4f28419497f9722a3daafe3b4186f6b6457e090600090a35050565b620001e0828262000204565b5050565b6000620001fb836001600160a01b0384166200028e565b90505b92915050565b620002108282620002dd565b620001e0576000828152602081815260408083206001600160a01b03851684529091529020805460ff191660011790556200024a62000133565b6001600160a01b0316816001600160a01b0316837f2f8788117e7eff1d82e926ec794901d17c78024a50270940304540a733656f0d60405160405180910390a45050565b60006200029c838362000306565b620002d457508154600181810184556000848152602080822090930184905584548482528286019093526040902091909155620001fe565b506000620001fe565b6000918252602082815260408084206001600160a01b0393909316845291905290205460ff1690565b60009081526001919091016020526040902054151590565b8280546200032c9062000520565b90600052602060002090601f0160209004810192826200035057600085556200039b565b82601f106200036b57805160ff19168380011785556200039b565b828001600101855582156200039b579182015b828111156200039b5782518255916020019190600101906200037e565b50620003a9929150620003ad565b5090565b5b80821115620003a95760008155600101620003ae565b80516001600160a01b0381168114620003dc57600080fd5b919050565b600082601f830112620003f2578081fd5b81516001600160401b03808211156200040f576200040f6200055d565b604051601f8301601f19908116603f011681019082821181831017156200043a576200043a6200055d565b8160405283815260209250868385880101111562000456578485fd5b8491505b838210156200047957858201830151818301840152908201906200045a565b838211156200048a57848385830101525b9695505050505050565b60008060008060808587031215620004aa578384fd5b84516001600160401b0380821115620004c1578586fd5b620004cf88838901620003e1565b95506020870151915080821115620004e5578485fd5b50620004f487828801620003e1565b9350506200050560408601620003c4565b91506200051560608601620003c4565b905092959194509250565b6002810460018216806200053557607f821691505b602082108114156200055757634e487b7160e01b600052602260045260246000fd5b50919050565b634e487b7160e01b600052604160045260246000fd5b6123d480620005836000396000f3fe608060405234801561001057600080fd5b50600436106102115760003560e01c8063715018a611610125578063a457c2d7116100ad578063d53913931161007c578063d539139314610402578063d547741f1461040a578063dd62ed3e1461041d578063e63ab1e914610430578063f2fde38b1461043857610211565b8063a457c2d7146103c1578063a9059cbb146103d4578063b4834c6c146103e7578063ca15c873146103ef57610211565b80639010d07c116100f45780639010d07c1461038357806391d148541461039657806395d89b41146103a95780639d76ea58146103b1578063a217fddf146103b957610211565b8063715018a61461035857806379cc6790146103605780638456cb59146103735780638da5cb5b1461037b57610211565b8063313ce567116101a857806340c10f191161017757806340c10f191461030f57806342966c68146103225780635c975abb1461033557806370a082311461033d57806370bb45b31461035057610211565b8063313ce567146102cc57806336568abe146102e157806339509351146102f45780633f4ba83a1461030757610211565b806318160ddd116101e457806318160ddd1461027c57806323b872dd14610291578063248a9ca3146102a45780632f2ff15d146102b757610211565b806301ffc9a71461021657806306fdde031461023f578063095ea7b3146102545780631755ff2114610267575b600080fd5b610229610224366004611ab6565b61044b565b6040516102369190611ba3565b60405180910390f35b610247610478565b6040516102369190611bb7565b610229610262366004611a12565b61050a565b61026f610528565b6040516102369190611b6b565b610284610537565b6040516102369190611bae565b61022961029f3660046119d7565b61053d565b6102846102b2366004611a5b565b6105d8565b6102ca6102c5366004611a73565b6105ed565b005b6102d4610614565b604051610236919061217a565b6102ca6102ef366004611a73565b610619565b610229610302366004611a12565b61063b565b6102ca61068f565b6102ca61031d366004611a12565b6106e1565b6102ca610330366004611a5b565b610737565b610229610754565b61028461034b36600461198b565b61075d565b6102ca610778565b6102ca610781565b6102ca61036e366004611a12565b6107ca565b6102ca610818565b61026f610868565b61026f610391366004611a95565b61087c565b6102296103a4366004611a73565b610894565b6102476108bd565b61026f6108cc565b6102846108db565b6102296103cf366004611a12565b6108e0565b6102296103e2366004611a12565b610959565b6102ca61096d565b6102846103fd366004611a5b565b6109e3565b6102846109fa565b6102ca610418366004611a73565b610a1e565b61028461042b3660046119a5565b610a28565b610284610a53565b6102ca61044636600461198b565b610a77565b60006001600160e01b03198216635a05180f60e01b1480610470575061047082610b04565b90505b919050565b6060600580546104879061234d565b80601f01602080910402602001604051908101604052809291908181526020018280546104b39061234d565b80156105005780601f106104d557610100808354040283529160200191610500565b820191906000526020600020905b8154815290600101906020018083116104e357829003601f168201915b5050505050905090565b600061051e610517610b29565b8484610b2d565b5060015b92915050565b6008546001600160a01b031681565b60045490565b600061054a848484610be1565b6001600160a01b03841660009081526003602052604081208161056b610b29565b6001600160a01b03166001600160a01b03168152602001908152602001600020549050828110156105b75760405162461bcd60e51b81526004016105ae90611e27565b60405180910390fd5b6105cb856105c3610b29565b858403610b2d565b60019150505b9392505050565b60009081526020819052604090206001015490565b6105f78282610d0b565b600082815260016020526040902061060f9082610aef565b505050565b601290565b6106238282610d2f565b600082815260016020526040902061060f9082610d71565b600061051e610648610b29565b848460036000610656610b29565b6001600160a01b03908116825260208083019390935260409182016000908120918b168152925290205461068a9190612188565b610b2d565b6106bb7f65d7a28e3265b37a6474929f336521b332c1681b933f6cb9f3376673440d862a6103a4610b29565b6106d75760405162461bcd60e51b81526004016105ae90611cd2565b6106df610d86565b565b61070d7f9f2df0fed2c77648de5860a4cc508cd0818c85b8b8a1ab4ceeef8d981c8956a66103a4610b29565b6107295760405162461bcd60e51b81526004016105ae90611ea4565b6107338282610df4565b5050565b61074033610ebc565b61075161074b610b29565b82610eff565b50565b60075460ff1690565b6001600160a01b031660009081526002602052604090205490565b6106df33610ff0565b610789610b29565b6001600160a01b031661079a610868565b6001600160a01b0316146107c05760405162461bcd60e51b81526004016105ae90611e6f565b6106df6000611300565b60006107d88361042b610b29565b9050818110156107fa5760405162461bcd60e51b81526004016105ae90611efa565b61080e83610806610b29565b848403610b2d565b61060f8383610eff565b6108447f65d7a28e3265b37a6474929f336521b332c1681b933f6cb9f3376673440d862a6103a4610b29565b6108605760405162461bcd60e51b81526004016105ae90612008565b6106df61135a565b60075461010090046001600160a01b031690565b60008281526001602052604081206105d190836113b5565b6000918252602082815260408084206001600160a01b0393909316845291905290205460ff1690565b6060600680546104879061234d565b6009546001600160a01b031681565b600081565b600080600360006108ef610b29565b6001600160a01b039081168252602080830193909352604091820160009081209188168152925290205490508281101561093b5760405162461bcd60e51b81526004016105ae90612065565b61094f610946610b29565b85858403610b2d565b5060019392505050565b600061051e610966610b29565b8484610be1565b610975610b29565b6001600160a01b0316610986610868565b6001600160a01b0316146109ac5760405162461bcd60e51b81526004016105ae90611e6f565b6008546106df907f9f2df0fed2c77648de5860a4cc508cd0818c85b8b8a1ab4ceeef8d981c8956a6906001600160a01b03166105ed565b6000818152600160205260408120610470906113c1565b7f9f2df0fed2c77648de5860a4cc508cd0818c85b8b8a1ab4ceeef8d981c8956a681565b61062382826113cc565b6001600160a01b03918216600090815260036020908152604080832093909416825291909152205490565b7f65d7a28e3265b37a6474929f336521b332c1681b933f6cb9f3376673440d862a81565b610a7f610b29565b6001600160a01b0316610a90610868565b6001600160a01b031614610ab65760405162461bcd60e51b81526004016105ae90611e6f565b6001600160a01b038116610adc5760405162461bcd60e51b81526004016105ae90611d2f565b61075181611300565b61073382826113eb565b60006105d1836001600160a01b038416611470565b60006001600160e01b03198216637965db0b60e01b14806104705750610470826114ba565b3390565b6001600160a01b038316610b535760405162461bcd60e51b81526004016105ae90611fc4565b6001600160a01b038216610b795760405162461bcd60e51b81526004016105ae90611d75565b6001600160a01b0380841660008181526003602090815260408083209487168084529490915290819020849055517f8c5be1e5ebec7d5bd14f71427d1e84f3dd0314c0f7b2291e5b200ac8c7c3b92590610bd4908590611bae565b60405180910390a3505050565b6001600160a01b038316610c075760405162461bcd60e51b81526004016105ae90611f7f565b6001600160a01b038216610c2d5760405162461bcd60e51b81526004016105ae90611c1f565b610c388383836114d3565b6001600160a01b03831660009081526002602052604090205481811015610c715760405162461bcd60e51b81526004016105ae90611db7565b6001600160a01b03808516600090815260026020526040808220858503905591851681529081208054849290610ca8908490612188565b92505081905550826001600160a01b0316846001600160a01b03167fddf252ad1be2c89b69c2b068fc378daa952ba7f163c4a11628f55a4df523b3ef84604051610cf29190611bae565b60405180910390a3610d0584848461060f565b50505050565b610d14826105d8565b610d2581610d20610b29565b61150e565b61060f83836113eb565b610d37610b29565b6001600160a01b0316816001600160a01b031614610d675760405162461bcd60e51b81526004016105ae906120aa565b6107338282611572565b60006105d1836001600160a01b0384166115f5565b610d8e610754565b610daa5760405162461bcd60e51b81526004016105ae90611c62565b6007805460ff191690557f5db9ee0a495bf2e6ff9c91a7834c1ba4fdd244a5e8aa4e537bd38aeae4b073aa610ddd610b29565b604051610dea9190611b6b565b60405180910390a1565b6001600160a01b038216610e1a5760405162461bcd60e51b81526004016105ae906120f9565b610e26600083836114d3565b8060046000828254610e389190612188565b90915550506001600160a01b03821660009081526002602052604081208054839290610e65908490612188565b90915550506040516001600160a01b038316906000907fddf252ad1be2c89b69c2b068fc378daa952ba7f163c4a11628f55a4df523b3ef90610ea8908590611bae565b60405180910390a36107336000838361060f565b61075181604051602401610ed09190611b6b565b60408051601f198184030181529190526020810180516001600160e01b031663161765e160e11b179052611712565b6001600160a01b038216610f255760405162461bcd60e51b81526004016105ae90611f3e565b610f31826000836114d3565b6001600160a01b03821660009081526002602052604090205481811015610f6a5760405162461bcd60e51b81526004016105ae90611c90565b6001600160a01b0383166000908152600260205260408120838303905560048054849290610f999084906122f3565b90915550506040516000906001600160a01b038516907fddf252ad1be2c89b69c2b068fc378daa952ba7f163c4a11628f55a4df523b3ef90610fdc908690611bae565b60405180910390a361060f8360008461060f565b6008546040805163313ce56760e01b815290516000926001600160a01b03169163313ce567916004808301926020929190829003018186803b15801561103557600080fd5b505afa158015611049573d6000803e3d6000fd5b505050506040513d601f19601f8201168201806040525081019061106d9190611ade565b61107890600a612206565b6040516370a0823160e01b815230906370a082319061109b908690600401611b6b565b60206040518083038186803b1580156110b357600080fd5b505afa1580156110c7573d6000803e3d6000fd5b505050506040513d601f19601f820116820180604052508101906110eb9190611ade565b6008546040516368e5585d60e01b81526001600160a01b03909116906368e5585d9061111b908790600401611b6b565b60206040518083038186803b15801561113357600080fd5b505afa158015611147573d6000803e3d6000fd5b505050506040513d601f19601f8201168201806040525081019061116b9190611ade565b600860009054906101000a90046001600160a01b03166001600160a01b0316633a4b66f16040518163ffffffff1660e01b815260040160206040518083038186803b1580156111b957600080fd5b505afa1580156111cd573d6000803e3d6000fd5b505050506040513d601f19601f820116820180604052508101906111f19190611ade565b6111fb91906122f3565b61120591906122d4565b61120f91906121a0565b6009546008546040516323b872dd60e01b81529293506001600160a01b03918216926323b872dd9261124992169086908690600401611b7f565b602060405180830381600087803b15801561126357600080fd5b505af1158015611277573d6000803e3d6000fd5b505050506040513d601f19601f8201168201806040525081019061129b9190611a3b565b5060085460405161063b60f01b81526001600160a01b039091169063063b0000906112ca908590600401611b6b565b600060405180830381600087803b1580156112e457600080fd5b505af11580156112f8573d6000803e3d6000fd5b505050505050565b600780546001600160a01b03838116610100818102610100600160a81b031985161790945560405193909204169182907f8be0079c531659141344cd1fd0a4f28419497f9722a3daafe3b4186f6b6457e090600090a35050565b611362610754565b1561137f5760405162461bcd60e51b81526004016105ae90611dfd565b6007805460ff191660011790557f62e78cea01bee320cd4e420270b5ea74000d11b0c9f74754ebdbfc544b05a258610ddd610b29565b60006105d18383611733565b60006104708261176b565b6113d5826105d8565b6113e181610d20610b29565b61060f8383611572565b6113f58282610894565b610733576000828152602081815260408083206001600160a01b03851684529091529020805460ff1916600117905561142c610b29565b6001600160a01b0316816001600160a01b0316837f2f8788117e7eff1d82e926ec794901d17c78024a50270940304540a733656f0d60405160405180910390a45050565b600061147c838361176f565b6114b257508154600181810184556000848152602080822090930184905584548482528286019093526040902091909155610522565b506000610522565b6001600160e01b031981166301ffc9a760e01b14919050565b6114de838383611787565b6001600160a01b038216156114f6576114f682610ff0565b6001600160a01b0383161561060f5761060f83610ff0565b6115188282610894565b61073357611530816001600160a01b03166014611792565b61153b836020611792565b60405160200161154c929190611af6565b60408051601f198184030181529082905262461bcd60e51b82526105ae91600401611bb7565b61157c8282610894565b15610733576000828152602081815260408083206001600160a01b03851684529091529020805460ff191690556115b1610b29565b6001600160a01b0316816001600160a01b0316837ff6391f5c32d9c69d2a47ea670b442974b53935d1edc7fd64eb21e047a839171b60405160405180910390a45050565b600081815260018301602052604081205480156117085760006116196001836122f3565b855490915060009061162d906001906122f3565b90508181146116ae57600086600001828154811061165b57634e487b7160e01b600052603260045260246000fd5b906000526020600020015490508087600001848154811061168c57634e487b7160e01b600052603260045260246000fd5b6000918252602080832090910192909255918252600188019052604090208390555b85548690806116cd57634e487b7160e01b600052603160045260246000fd5b600190038181906000526020600020016000905590558560010160008681526020019081526020016000206000905560019350505050610522565b6000915050610522565b80516a636f6e736f6c652e6c6f67602083016000808483855afa5050505050565b600082600001828154811061175857634e487b7160e01b600052603260045260246000fd5b9060005260206000200154905092915050565b5490565b60009081526001919091016020526040902054151590565b61060f838383611944565b606060006117a18360026122d4565b6117ac906002612188565b67ffffffffffffffff8111156117d257634e487b7160e01b600052604160045260246000fd5b6040519080825280601f01601f1916602001820160405280156117fc576020820181803683370190505b509050600360fc1b8160008151811061182557634e487b7160e01b600052603260045260246000fd5b60200101906001600160f81b031916908160001a905350600f60fb1b8160018151811061186257634e487b7160e01b600052603260045260246000fd5b60200101906001600160f81b031916908160001a90535060006118868460026122d4565b611891906001612188565b90505b6001811115611925576f181899199a1a9b1b9c1cb0b131b232b360811b85600f16601081106118d357634e487b7160e01b600052603260045260246000fd5b1a60f81b8282815181106118f757634e487b7160e01b600052603260045260246000fd5b60200101906001600160f81b031916908160001a90535060049490941c9361191e81612336565b9050611894565b5083156105d15760405162461bcd60e51b81526004016105ae90611bea565b61194f83838361060f565b611957610754565b1561060f5760405162461bcd60e51b81526004016105ae90612130565b80356001600160a01b038116811461047357600080fd5b60006020828403121561199c578081fd5b6105d182611974565b600080604083850312156119b7578081fd5b6119c083611974565b91506119ce60208401611974565b90509250929050565b6000806000606084860312156119eb578081fd5b6119f484611974565b9250611a0260208501611974565b9150604084013590509250925092565b60008060408385031215611a24578182fd5b611a2d83611974565b946020939093013593505050565b600060208284031215611a4c578081fd5b815180151581146105d1578182fd5b600060208284031215611a6c578081fd5b5035919050565b60008060408385031215611a85578182fd5b823591506119ce60208401611974565b60008060408385031215611aa7578182fd5b50508035926020909101359150565b600060208284031215611ac7578081fd5b81356001600160e01b0319811681146105d1578182fd5b600060208284031215611aef578081fd5b5051919050565b60007f416363657373436f6e74726f6c3a206163636f756e742000000000000000000082528351611b2e81601785016020880161230a565b7001034b99036b4b9b9b4b733903937b6329607d1b6017918401918201528351611b5f81602884016020880161230a565b01602801949350505050565b6001600160a01b0391909116815260200190565b6001600160a01b039384168152919092166020820152604081019190915260600190565b901515815260200190565b90815260200190565b6000602082528251806020840152611bd681604085016020870161230a565b601f01601f19169190910160400192915050565b6020808252818101527f537472696e67733a20686578206c656e67746820696e73756666696369656e74604082015260600190565b60208082526023908201527f45524332303a207472616e7366657220746f20746865207a65726f206164647260408201526265737360e81b606082015260800190565b60208082526014908201527314185d5cd8589b194e881b9bdd081c185d5cd95960621b604082015260600190565b60208082526022908201527f45524332303a206275726e20616d6f756e7420657863656564732062616c616e604082015261636560f01b606082015260800190565b60208082526039908201527f45524332305072657365744d696e7465725061757365723a206d75737420686160408201527f76652070617573657220726f6c6520746f20756e706175736500000000000000606082015260800190565b60208082526026908201527f4f776e61626c653a206e6577206f776e657220697320746865207a65726f206160408201526564647265737360d01b606082015260800190565b60208082526022908201527f45524332303a20617070726f766520746f20746865207a65726f206164647265604082015261737360f01b606082015260800190565b60208082526026908201527f45524332303a207472616e7366657220616d6f756e7420657863656564732062604082015265616c616e636560d01b606082015260800190565b60208082526010908201526f14185d5cd8589b194e881c185d5cd95960821b604082015260600190565b60208082526028908201527f45524332303a207472616e7366657220616d6f756e74206578636565647320616040820152676c6c6f77616e636560c01b606082015260800190565b6020808252818101527f4f776e61626c653a2063616c6c6572206973206e6f7420746865206f776e6572604082015260600190565b60208082526036908201527f45524332305072657365744d696e7465725061757365723a206d7573742068616040820152751d99481b5a5b9d195c881c9bdb19481d1bc81b5a5b9d60521b606082015260800190565b60208082526024908201527f45524332303a206275726e20616d6f756e74206578636565647320616c6c6f77604082015263616e636560e01b606082015260800190565b60208082526021908201527f45524332303a206275726e2066726f6d20746865207a65726f206164647265736040820152607360f81b606082015260800190565b60208082526025908201527f45524332303a207472616e736665722066726f6d20746865207a65726f206164604082015264647265737360d81b606082015260800190565b60208082526024908201527f45524332303a20617070726f76652066726f6d20746865207a65726f206164646040820152637265737360e01b606082015260800190565b60208082526037908201527f45524332305072657365744d696e7465725061757365723a206d75737420686160408201527f76652070617573657220726f6c6520746f207061757365000000000000000000606082015260800190565b60208082526025908201527f45524332303a2064656372656173656420616c6c6f77616e63652062656c6f77604082015264207a65726f60d81b606082015260800190565b6020808252602f908201527f416363657373436f6e74726f6c3a2063616e206f6e6c792072656e6f756e636560408201526e103937b632b9903337b91039b2b63360891b606082015260800190565b6020808252601f908201527f45524332303a206d696e7420746f20746865207a65726f206164647265737300604082015260600190565b6020808252602a908201527f45524332305061757361626c653a20746f6b656e207472616e736665722077686040820152691a5b19481c185d5cd95960b21b606082015260800190565b60ff91909116815260200190565b6000821982111561219b5761219b612388565b500190565b6000826121bb57634e487b7160e01b81526012600452602481fd5b500490565b80825b60018086116121d257506121fd565b8187048211156121e4576121e4612388565b808616156121f157918102915b9490941c9380026121c3565b94509492505050565b60006105d1600019848460008261221f575060016105d1565b8161222c575060006105d1565b8160018114612242576002811461224c57612279565b60019150506105d1565b60ff84111561225d5761225d612388565b6001841b91508482111561227357612273612388565b506105d1565b5060208310610133831016604e8410600b84101617156122ac575081810a838111156122a7576122a7612388565b6105d1565b6122b984848460016121c0565b8086048211156122cb576122cb612388565b02949350505050565b60008160001904831182151516156122ee576122ee612388565b500290565b60008282101561230557612305612388565b500390565b60005b8381101561232557818101518382015260200161230d565b83811115610d055750506000910152565b60008161234557612345612388565b506000190190565b60028104600182168061236157607f821691505b6020821081141561238257634e487b7160e01b600052602260045260246000fd5b50919050565b634e487b7160e01b600052601160045260246000fdfea26469706673582212209889f354a672b86170d1421b9f8c88fd5c9ecd0729a1e48811dadab2c385c6b964736f6c63430008010033",
  "devdoc": {
    "kind": "dev",
    "methods": {
      "allowance(address,address)": {
        "details": "See {IERC20-allowance}."
      },
      "approve(address,uint256)": {
        "details": "See {IERC20-approve}. Requirements: - `spender` cannot be the zero address."
      },
      "balanceOf(address)": {
        "details": "See {IERC20-balanceOf}."
      },
      "burn(uint256)": {
        "details": "Destroys `amount` tokens from the caller. See {ERC20-_burn}."
      },
      "burnFrom(address,uint256)": {
        "details": "Destroys `amount` tokens from `account`, deducting from the caller's allowance. See {ERC20-_burn} and {ERC20-allowance}. Requirements: - the caller must have allowance for ``accounts``'s tokens of at least `amount`."
      },
      "decimals()": {
        "details": "Returns the number of decimals used to get its user representation. For example, if `decimals` equals `2`, a balance of `505` tokens should be displayed to a user as `5.05` (`505 / 10 ** 2`). Tokens usually opt for a value of 18, imitating the relationship between Ether and Wei. This is the value {ERC20} uses, unless this function is overridden; NOTE: This information is only used for _display_ purposes: it in no way affects any of the arithmetic of the contract, including {IERC20-balanceOf} and {IERC20-transfer}."
      },
      "decreaseAllowance(address,uint256)": {
        "details": "Atomically decreases the allowance granted to `spender` by the caller. This is an alternative to {approve} that can be used as a mitigation for problems described in {IERC20-approve}. Emits an {Approval} event indicating the updated allowance. Requirements: - `spender` cannot be the zero address. - `spender` must have allowance for the caller of at least `subtractedValue`."
      },
      "getRoleAdmin(bytes32)": {
        "details": "Returns the admin role that controls `role`. See {grantRole} and {revokeRole}. To change a role's admin, use {_setRoleAdmin}."
      },
      "getRoleMember(bytes32,uint256)": {
        "details": "Returns one of the accounts that have `role`. `index` must be a value between 0 and {getRoleMemberCount}, non-inclusive. Role bearers are not sorted in any particular way, and their ordering may change at any point. WARNING: When using {getRoleMember} and {getRoleMemberCount}, make sure you perform all queries on the same block. See the following https://forum.openzeppelin.com/t/iterating-over-elements-on-enumerableset-in-openzeppelin-contracts/2296[forum post] for more information."
      },
      "getRoleMemberCount(bytes32)": {
        "details": "Returns the number of accounts that have `role`. Can be used together with {getRoleMember} to enumerate all bearers of a role."
      },
      "grantRole(bytes32,address)": {
        "details": "Overload {grantRole} to track enumerable memberships"
      },
      "hasRole(bytes32,address)": {
        "details": "Returns `true` if `account` has been granted `role`."
      },
      "increaseAllowance(address,uint256)": {
        "details": "Atomically increases the allowance granted to `spender` by the caller. This is an alternative to {approve} that can be used as a mitigation for problems described in {IERC20-approve}. Emits an {Approval} event indicating the updated allowance. Requirements: - `spender` cannot be the zero address."
      },
      "mint(address,uint256)": {
        "details": "Creates `amount` new tokens for `to`. See {ERC20-_mint}. Requirements: - the caller must have the `MINTER_ROLE`."
      },
      "name()": {
        "details": "Returns the name of the token."
      },
      "owner()": {
        "details": "Returns the address of the current owner."
      },
      "pause()": {
        "details": "Pauses all token transfers. See {ERC20Pausable} and {Pausable-_pause}. Requirements: - the caller must have the `PAUSER_ROLE`."
      },
      "paused()": {
        "details": "Returns true if the contract is paused, and false otherwise."
      },
      "renounceOwnership()": {
        "details": "Leaves the contract without owner. It will not be possible to call `onlyOwner` functions anymore. Can only be called by the current owner. NOTE: Renouncing ownership will leave the contract without an owner, thereby removing any functionality that is only available to the owner."
      },
      "renounceRole(bytes32,address)": {
        "details": "Overload {renounceRole} to track enumerable memberships"
      },
      "revokeRole(bytes32,address)": {
        "details": "Overload {revokeRole} to track enumerable memberships"
      },
      "supportsInterface(bytes4)": {
        "details": "See {IERC165-supportsInterface}."
      },
      "symbol()": {
        "details": "Returns the symbol of the token, usually a shorter version of the name."
      },
      "totalSupply()": {
        "details": "See {IERC20-totalSupply}."
      },
      "transfer(address,uint256)": {
        "details": "See {IERC20-transfer}. Requirements: - `recipient` cannot be the zero address. - the caller must have a balance of at least `amount`."
      },
      "transferFrom(address,address,uint256)": {
        "details": "See {IERC20-transferFrom}. Emits an {Approval} event indicating the updated allowance. This is not required by the EIP. See the note at the beginning of {ERC20}. Requirements: - `sender` and `recipient` cannot be the zero address. - `sender` must have a balance of at least `amount`. - the caller must have allowance for ``sender``'s tokens of at least `amount`."
      },
      "transferOwnership(address)": {
        "details": "Transfers ownership of the contract to a new account (`newOwner`). Can only be called by the current owner."
      },
      "unpause()": {
        "details": "Unpauses all token transfers. See {ERC20Pausable} and {Pausable-_unpause}. Requirements: - the caller must have the `PAUSER_ROLE`."
      }
    },
    "version": 1
  },
  "userdoc": {
    "kind": "user",
    "methods": {},
    "version": 1
  },
  "storageLayout": {
    "storage": [
      {
        "astId": 24,
        "contract": "contracts/LpToken.sol:LpToken",
        "label": "_roles",
        "offset": 0,
        "slot": "0",
        "type": "t_mapping(t_bytes32,t_struct(RoleData)19_storage)"
      },
      {
        "astId": 325,
        "contract": "contracts/LpToken.sol:LpToken",
        "label": "_roleMembers",
        "offset": 0,
        "slot": "1",
        "type": "t_mapping(t_bytes32,t_struct(AddressSet)2284_storage)"
      },
      {
        "astId": 836,
        "contract": "contracts/LpToken.sol:LpToken",
        "label": "_balances",
        "offset": 0,
        "slot": "2",
        "type": "t_mapping(t_address,t_uint256)"
      },
      {
        "astId": 842,
        "contract": "contracts/LpToken.sol:LpToken",
        "label": "_allowances",
        "offset": 0,
        "slot": "3",
        "type": "t_mapping(t_address,t_mapping(t_address,t_uint256))"
      },
      {
        "astId": 844,
        "contract": "contracts/LpToken.sol:LpToken",
        "label": "_totalSupply",
        "offset": 0,
        "slot": "4",
        "type": "t_uint256"
      },
      {
        "astId": 846,
        "contract": "contracts/LpToken.sol:LpToken",
        "label": "_name",
        "offset": 0,
        "slot": "5",
        "type": "t_string_storage"
      },
      {
        "astId": 848,
        "contract": "contracts/LpToken.sol:LpToken",
        "label": "_symbol",
        "offset": 0,
        "slot": "6",
        "type": "t_string_storage"
      },
      {
        "astId": 705,
        "contract": "contracts/LpToken.sol:LpToken",
        "label": "_paused",
        "offset": 0,
        "slot": "7",
        "type": "t_bool"
      },
      {
        "astId": 591,
        "contract": "contracts/LpToken.sol:LpToken",
        "label": "_owner",
        "offset": 1,
        "slot": "7",
        "type": "t_address"
      },
      {
        "astId": 2837,
        "contract": "contracts/LpToken.sol:LpToken",
        "label": "poolAddress",
        "offset": 0,
        "slot": "8",
        "type": "t_address"
      },
      {
        "astId": 2839,
        "contract": "contracts/LpToken.sol:LpToken",
        "label": "tokenAddress",
        "offset": 0,
        "slot": "9",
        "type": "t_address"
      }
    ],
    "types": {
      "t_address": {
        "encoding": "inplace",
        "label": "address",
        "numberOfBytes": "20"
      },
      "t_array(t_bytes32)dyn_storage": {
        "base": "t_bytes32",
        "encoding": "dynamic_array",
        "label": "bytes32[]",
        "numberOfBytes": "32"
      },
      "t_bool": {
        "encoding": "inplace",
        "label": "bool",
        "numberOfBytes": "1"
      },
      "t_bytes32": {
        "encoding": "inplace",
        "label": "bytes32",
        "numberOfBytes": "32"
      },
      "t_mapping(t_address,t_bool)": {
        "encoding": "mapping",
        "key": "t_address",
        "label": "mapping(address => bool)",
        "numberOfBytes": "32",
        "value": "t_bool"
      },
      "t_mapping(t_address,t_mapping(t_address,t_uint256))": {
        "encoding": "mapping",
        "key": "t_address",
        "label": "mapping(address => mapping(address => uint256))",
        "numberOfBytes": "32",
        "value": "t_mapping(t_address,t_uint256)"
      },
      "t_mapping(t_address,t_uint256)": {
        "encoding": "mapping",
        "key": "t_address",
        "label": "mapping(address => uint256)",
        "numberOfBytes": "32",
        "value": "t_uint256"
      },
      "t_mapping(t_bytes32,t_struct(AddressSet)2284_storage)": {
        "encoding": "mapping",
        "key": "t_bytes32",
        "label": "mapping(bytes32 => struct EnumerableSet.AddressSet)",
        "numberOfBytes": "32",
        "value": "t_struct(AddressSet)2284_storage"
      },
      "t_mapping(t_bytes32,t_struct(RoleData)19_storage)": {
        "encoding": "mapping",
        "key": "t_bytes32",
        "label": "mapping(bytes32 => struct AccessControl.RoleData)",
        "numberOfBytes": "32",
        "value": "t_struct(RoleData)19_storage"
      },
      "t_mapping(t_bytes32,t_uint256)": {
        "encoding": "mapping",
        "key": "t_bytes32",
        "label": "mapping(bytes32 => uint256)",
        "numberOfBytes": "32",
        "value": "t_uint256"
      },
      "t_string_storage": {
        "encoding": "bytes",
        "label": "string",
        "numberOfBytes": "32"
      },
      "t_struct(AddressSet)2284_storage": {
        "encoding": "inplace",
        "label": "struct EnumerableSet.AddressSet",
        "members": [
          {
            "astId": 2283,
            "contract": "contracts/LpToken.sol:LpToken",
            "label": "_inner",
            "offset": 0,
            "slot": "0",
            "type": "t_struct(Set)1983_storage"
          }
        ],
        "numberOfBytes": "64"
      },
      "t_struct(RoleData)19_storage": {
        "encoding": "inplace",
        "label": "struct AccessControl.RoleData",
        "members": [
          {
            "astId": 16,
            "contract": "contracts/LpToken.sol:LpToken",
            "label": "members",
            "offset": 0,
            "slot": "0",
            "type": "t_mapping(t_address,t_bool)"
          },
          {
            "astId": 18,
            "contract": "contracts/LpToken.sol:LpToken",
            "label": "adminRole",
            "offset": 0,
            "slot": "1",
            "type": "t_bytes32"
          }
        ],
        "numberOfBytes": "64"
      },
      "t_struct(Set)1983_storage": {
        "encoding": "inplace",
        "label": "struct EnumerableSet.Set",
        "members": [
          {
            "astId": 1978,
            "contract": "contracts/LpToken.sol:LpToken",
            "label": "_values",
            "offset": 0,
            "slot": "0",
            "type": "t_array(t_bytes32)dyn_storage"
          },
          {
            "astId": 1982,
            "contract": "contracts/LpToken.sol:LpToken",
            "label": "_indexes",
            "offset": 0,
            "slot": "1",
            "type": "t_mapping(t_bytes32,t_uint256)"
          }
        ],
        "numberOfBytes": "64"
      },
      "t_uint256": {
        "encoding": "inplace",
        "label": "uint256",
        "numberOfBytes": "32"
      }
    }
  }
}