{
  "address": "0xf435e8E46293B3dA224F6C0913969D6f5dfE7E86",
  "abi": [
    {
      "anonymous": false,
      "inputs": [
        {
          "indexed": false,
          "internalType": "address",
          "name": "poolAddress",
          "type": "address"
        },
        {
          "indexed": false,
          "internalType": "uint256",
          "name": "tokenAmount",
          "type": "uint256"
        },
        {
          "indexed": false,
          "internalType": "address",
          "name": "depositor",
          "type": "address"
        }
      ],
      "name": "Deposit",
      "type": "event"
    },
    {
      "anonymous": false,
      "inputs": [
        {
          "indexed": true,
          "internalType": "address",
          "name": "previousOwner",
          "type": "address"
        },
        {
          "indexed": true,
          "internalType": "address",
          "name": "newOwner",
          "type": "address"
        }
      ],
      "name": "OwnershipTransferred",
      "type": "event"
    },
    {
      "anonymous": false,
      "inputs": [
        {
          "indexed": false,
          "internalType": "address",
          "name": "poolAddress",
          "type": "address"
        },
        {
          "indexed": false,
          "internalType": "uint256",
          "name": "reward",
          "type": "uint256"
        }
      ],
      "name": "PoolEarned",
      "type": "event"
    },
    {
      "anonymous": false,
      "inputs": [
        {
          "indexed": false,
          "internalType": "address",
          "name": "poolAddress",
          "type": "address"
        },
        {
          "indexed": false,
          "internalType": "uint256",
          "name": "tokenAmount",
          "type": "uint256"
        },
        {
          "indexed": false,
          "internalType": "address",
          "name": "withdrawer",
          "type": "address"
        }
      ],
      "name": "Withdraw",
      "type": "event"
    },
    {
      "inputs": [
        {
          "internalType": "uint256",
          "name": "_amount",
          "type": "uint256"
        }
      ],
      "name": "deposit",
      "outputs": [],
      "stateMutability": "nonpayable",
      "type": "function"
    },
    {
      "inputs": [],
      "name": "flashLoanAddress",
      "outputs": [
        {
          "internalType": "address",
          "name": "",
          "type": "address"
        }
      ],
      "stateMutability": "view",
      "type": "function"
    },
    {
      "inputs": [],
      "name": "lpTokenAddress",
      "outputs": [
        {
          "internalType": "address",
          "name": "",
          "type": "address"
        }
      ],
      "stateMutability": "view",
      "type": "function"
    },
    {
      "inputs": [],
      "name": "owner",
      "outputs": [
        {
          "internalType": "address",
          "name": "",
          "type": "address"
        }
      ],
      "stateMutability": "view",
      "type": "function"
    },
    {
      "inputs": [],
      "name": "renounceOwnership",
      "outputs": [],
      "stateMutability": "nonpayable",
      "type": "function"
    },
    {
      "inputs": [
        {
          "internalType": "uint256",
          "name": "_reward",
          "type": "uint256"
        }
      ],
      "name": "sendReward",
      "outputs": [],
      "stateMutability": "nonpayable",
      "type": "function"
    },
    {
      "inputs": [
        {
          "internalType": "address",
          "name": "_lpTokenAddress",
          "type": "address"
        },
        {
          "internalType": "address",
          "name": "_flashLoanAddress",
          "type": "address"
        },
        {
          "internalType": "address",
          "name": "_tokenAddress",
          "type": "address"
        }
      ],
      "name": "setConfigurationPool",
      "outputs": [],
      "stateMutability": "nonpayable",
      "type": "function"
    },
    {
      "inputs": [],
      "name": "tokenAddress",
      "outputs": [
        {
          "internalType": "address",
          "name": "",
          "type": "address"
        }
      ],
      "stateMutability": "view",
      "type": "function"
    },
    {
      "inputs": [
        {
          "internalType": "address",
          "name": "newOwner",
          "type": "address"
        }
      ],
      "name": "transferOwnership",
      "outputs": [],
      "stateMutability": "nonpayable",
      "type": "function"
    },
    {
      "inputs": [],
      "name": "withdraw",
      "outputs": [],
      "stateMutability": "nonpayable",
      "type": "function"
    }
  ],
  "transactionHash": "0xfa399c88b8704648f36f270dee8980eb9284e1b4ce1af7fc7a98c512e4d5f65a",
  "args": [],
  "solcInputHash": "4ade6b5e3df4171f210569b84853e2c3",
  "bytecode": "0x608060405234801561001057600080fd5b5061001a3361001f565b61006f565b600080546001600160a01b038381166001600160a01b0319831681178455604051919092169283917f8be0079c531659141344cd1fd0a4f28419497f9722a3daafe3b4186f6b6457e09190a35050565b6108ca8061007e6000396000f3fe608060405234801561001057600080fd5b506004361061009e5760003560e01c8063b6b55f2511610066578063b6b55f2514610108578063c78b6dea1461011b578063cfb0721c1461012e578063f2fde38b14610141578063f5ae497a1461015457600080fd5b80633ccfd60b146100a35780634169467d146100ad578063715018a6146100dc5780638da5cb5b146100e45780639d76ea58146100f5575b600080fd5b6100ab610167565b005b6003546100c0906001600160a01b031681565b6040516001600160a01b03909116815260200160405180910390f35b6100ab610356565b6000546001600160a01b03166100c0565b6001546100c0906001600160a01b031681565b6100ab61011636600461082d565b61038c565b6100ab61012936600461082d565b6104f9565b6100ab61013c3660046107c8565b6105b8565b6100ab61014f3660046107a6565b61069f565b6002546100c0906001600160a01b031681565b6002546040516370a0823160e01b81523360048201526000916001600160a01b0316906370a082319060240160206040518083038186803b1580156101ab57600080fd5b505afa1580156101bf573d6000803e3d6000fd5b505050506040513d601f19601f820116820180604052508101906101e39190610846565b60025460405163079cc67960e41b8152336004820152602481018390529192506001600160a01b0316906379cc679090604401600060405180830381600087803b15801561023057600080fd5b505af1158015610244573d6000803e3d6000fd5b505060015460405163a9059cbb60e01b8152336004820152602481018590526001600160a01b03909116925063a9059cbb9150604401602060405180830381600087803b15801561029457600080fd5b505af11580156102a8573d6000803e3d6000fd5b505050506040513d601f19601f820116820180604052508101906102cc919061080b565b61030f5760405162461bcd60e51b815260206004820152600f60248201526e151c985b9cd9995c8819985a5b1959608a1b60448201526064015b60405180910390fd5b604080513081526020810183905233918101919091527f56c54ba9bd38d8fd62012e42c7ee564519b09763c426d331b3661b537ead19b2906060015b60405180910390a150565b6000546001600160a01b031633146103805760405162461bcd60e51b81526004016103069061085f565b61038a600061073a565b565b6001546040516323b872dd60e01b8152336004820152306024820152604481018390526001600160a01b03909116906323b872dd90606401602060405180830381600087803b1580156103de57600080fd5b505af11580156103f2573d6000803e3d6000fd5b505050506040513d601f19601f82011682018060405250810190610416919061080b565b6104545760405162461bcd60e51b815260206004820152600f60248201526e151c985b9cd9995c8819985a5b1959608a1b6044820152606401610306565b6002546040516340c10f1960e01b8152336004820152602481018390526001600160a01b03909116906340c10f1990604401600060405180830381600087803b1580156104a057600080fd5b505af11580156104b4573d6000803e3d6000fd5b5050604080513081526020810185905233918101919091527fe31c7b8d08ee7db0afa68782e1028ef92305caeea8626633ad44d413e30f6b2f9250606001905061034b565b60015460025460405163a9059cbb60e01b81526001600160a01b0391821660048201526024810184905291169063a9059cbb90604401602060405180830381600087803b15801561054957600080fd5b505af115801561055d573d6000803e3d6000fd5b505050506040513d601f19601f82011682018060405250810190610581919061080b565b5060408051308152602081018390527f40e1a6326b568c12e6ffc03d4abf0cb49a4d1dd8f545c09648a90569f9579944910161034b565b6000546001600160a01b031633146105e25760405162461bcd60e51b81526004016103069061085f565b600280546001600160a01b038581166001600160a01b0319928316179092556001805484841690831681179091556003805493861693909216831790915560405163095ea7b360e01b8152600481019290925260001960248301529063095ea7b390604401602060405180830381600087803b15801561066157600080fd5b505af1158015610675573d6000803e3d6000fd5b505050506040513d601f19601f82011682018060405250810190610699919061080b565b50505050565b6000546001600160a01b031633146106c95760405162461bcd60e51b81526004016103069061085f565b6001600160a01b03811661072e5760405162461bcd60e51b815260206004820152602660248201527f4f776e61626c653a206e6577206f776e657220697320746865207a65726f206160448201526564647265737360d01b6064820152608401610306565b6107378161073a565b50565b600080546001600160a01b038381166001600160a01b0319831681178455604051919092169283917f8be0079c531659141344cd1fd0a4f28419497f9722a3daafe3b4186f6b6457e09190a35050565b80356001600160a01b03811681146107a157600080fd5b919050565b6000602082840312156107b857600080fd5b6107c18261078a565b9392505050565b6000806000606084860312156107dd57600080fd5b6107e68461078a565b92506107f46020850161078a565b91506108026040850161078a565b90509250925092565b60006020828403121561081d57600080fd5b815180151581146107c157600080fd5b60006020828403121561083f57600080fd5b5035919050565b60006020828403121561085857600080fd5b5051919050565b6020808252818101527f4f776e61626c653a2063616c6c6572206973206e6f7420746865206f776e657260408201526060019056fea2646970667358221220376e2894bfa1aafb3e14c9e41293ff76e960c4b60f4617c23e3163224b07dd7c64736f6c63430008060033",
  "devdoc": {
    "kind": "dev",
    "methods": {
      "owner()": {
        "details": "Returns the address of the current owner."
      },
      "renounceOwnership()": {
        "details": "Leaves the contract without owner. It will not be possible to call `onlyOwner` functions anymore. Can only be called by the current owner. NOTE: Renouncing ownership will leave the contract without an owner, thereby removing any functionality that is only available to the owner."
      },
      "transferOwnership(address)": {
        "details": "Transfers ownership of the contract to a new account (`newOwner`). Can only be called by the current owner."
      }
    },
    "version": 1
  },
  "userdoc": {
    "kind": "user",
    "methods": {},
    "version": 1
  },
  "storageLayout": {
    "storage": [
      {
        "astId": 539,
        "contract": "contracts/Pool.sol:Pool",
        "label": "_owner",
        "offset": 0,
        "slot": "0",
        "type": "t_address"
      },
      {
        "astId": 3003,
        "contract": "contracts/Pool.sol:Pool",
        "label": "tokenAddress",
        "offset": 0,
        "slot": "1",
        "type": "t_address"
      },
      {
        "astId": 3005,
        "contract": "contracts/Pool.sol:Pool",
        "label": "lpTokenAddress",
        "offset": 0,
        "slot": "2",
        "type": "t_address"
      },
      {
        "astId": 3007,
        "contract": "contracts/Pool.sol:Pool",
        "label": "flashLoanAddress",
        "offset": 0,
        "slot": "3",
        "type": "t_address"
      }
    ],
    "types": {
      "t_address": {
        "encoding": "inplace",
        "label": "address",
        "numberOfBytes": "20"
      }
    }
  }
}