{
  "address": "0x3DA5FD1124156a07b7Fb5555e655a89C6407D9D2",
  "abi": [
    {
      "anonymous": false,
      "inputs": [
        {
          "indexed": true,
          "internalType": "address",
          "name": "previousOwner",
          "type": "address"
        },
        {
          "indexed": true,
          "internalType": "address",
          "name": "newOwner",
          "type": "address"
        }
      ],
      "name": "OwnershipTransferred",
      "type": "event"
    },
    {
      "anonymous": false,
      "inputs": [
        {
          "indexed": true,
          "internalType": "bytes32",
          "name": "role",
          "type": "bytes32"
        },
        {
          "indexed": true,
          "internalType": "bytes32",
          "name": "previousAdminRole",
          "type": "bytes32"
        },
        {
          "indexed": true,
          "internalType": "bytes32",
          "name": "newAdminRole",
          "type": "bytes32"
        }
      ],
      "name": "RoleAdminChanged",
      "type": "event"
    },
    {
      "anonymous": false,
      "inputs": [
        {
          "indexed": true,
          "internalType": "bytes32",
          "name": "role",
          "type": "bytes32"
        },
        {
          "indexed": true,
          "internalType": "address",
          "name": "account",
          "type": "address"
        },
        {
          "indexed": true,
          "internalType": "address",
          "name": "sender",
          "type": "address"
        }
      ],
      "name": "RoleGranted",
      "type": "event"
    },
    {
      "anonymous": false,
      "inputs": [
        {
          "indexed": true,
          "internalType": "bytes32",
          "name": "role",
          "type": "bytes32"
        },
        {
          "indexed": true,
          "internalType": "address",
          "name": "account",
          "type": "address"
        },
        {
          "indexed": true,
          "internalType": "address",
          "name": "sender",
          "type": "address"
        }
      ],
      "name": "RoleRevoked",
      "type": "event"
    },
    {
      "inputs": [],
      "name": "DEFAULT_ADMIN_ROLE",
      "outputs": [
        {
          "internalType": "bytes32",
          "name": "",
          "type": "bytes32"
        }
      ],
      "stateMutability": "view",
      "type": "function"
    },
    {
      "inputs": [],
      "name": "STAKE_CONTROLLER_ROLE",
      "outputs": [
        {
          "internalType": "bytes32",
          "name": "",
          "type": "bytes32"
        }
      ],
      "stateMutability": "view",
      "type": "function"
    },
    {
      "inputs": [
        {
          "internalType": "address",
          "name": "_user",
          "type": "address"
        }
      ],
      "name": "changeUserStake",
      "outputs": [],
      "stateMutability": "nonpayable",
      "type": "function"
    },
    {
      "inputs": [],
      "name": "decimals",
      "outputs": [
        {
          "internalType": "uint256",
          "name": "",
          "type": "uint256"
        }
      ],
      "stateMutability": "view",
      "type": "function"
    },
    {
      "inputs": [
        {
          "internalType": "uint256",
          "name": "_amount",
          "type": "uint256"
        }
      ],
      "name": "deposit",
      "outputs": [],
      "stateMutability": "nonpayable",
      "type": "function"
    },
    {
      "inputs": [
        {
          "internalType": "uint256",
          "name": "_reward",
          "type": "uint256"
        }
      ],
      "name": "distributeReward",
      "outputs": [],
      "stateMutability": "nonpayable",
      "type": "function"
    },
    {
      "inputs": [],
      "name": "flashLoanAddress",
      "outputs": [
        {
          "internalType": "address",
          "name": "",
          "type": "address"
        }
      ],
      "stateMutability": "view",
      "type": "function"
    },
    {
      "inputs": [
        {
          "internalType": "bytes32",
          "name": "role",
          "type": "bytes32"
        }
      ],
      "name": "getRoleAdmin",
      "outputs": [
        {
          "internalType": "bytes32",
          "name": "",
          "type": "bytes32"
        }
      ],
      "stateMutability": "view",
      "type": "function"
    },
    {
      "inputs": [
        {
          "internalType": "bytes32",
          "name": "role",
          "type": "bytes32"
        },
        {
          "internalType": "address",
          "name": "account",
          "type": "address"
        }
      ],
      "name": "grantRole",
      "outputs": [],
      "stateMutability": "nonpayable",
      "type": "function"
    },
    {
      "inputs": [],
      "name": "grantRoleController",
      "outputs": [],
      "stateMutability": "nonpayable",
      "type": "function"
    },
    {
      "inputs": [
        {
          "internalType": "bytes32",
          "name": "role",
          "type": "bytes32"
        },
        {
          "internalType": "address",
          "name": "account",
          "type": "address"
        }
      ],
      "name": "hasRole",
      "outputs": [
        {
          "internalType": "bool",
          "name": "",
          "type": "bool"
        }
      ],
      "stateMutability": "view",
      "type": "function"
    },
    {
      "inputs": [],
      "name": "lpTokenAddress",
      "outputs": [
        {
          "internalType": "address",
          "name": "",
          "type": "address"
        }
      ],
      "stateMutability": "view",
      "type": "function"
    },
    {
      "inputs": [],
      "name": "owner",
      "outputs": [
        {
          "internalType": "address",
          "name": "",
          "type": "address"
        }
      ],
      "stateMutability": "view",
      "type": "function"
    },
    {
      "inputs": [],
      "name": "renounceOwnership",
      "outputs": [],
      "stateMutability": "nonpayable",
      "type": "function"
    },
    {
      "inputs": [
        {
          "internalType": "bytes32",
          "name": "role",
          "type": "bytes32"
        },
        {
          "internalType": "address",
          "name": "account",
          "type": "address"
        }
      ],
      "name": "renounceRole",
      "outputs": [],
      "stateMutability": "nonpayable",
      "type": "function"
    },
    {
      "inputs": [
        {
          "internalType": "bytes32",
          "name": "role",
          "type": "bytes32"
        },
        {
          "internalType": "address",
          "name": "account",
          "type": "address"
        }
      ],
      "name": "revokeRole",
      "outputs": [],
      "stateMutability": "nonpayable",
      "type": "function"
    },
    {
      "inputs": [
        {
          "internalType": "address",
          "name": "_flashLoanAddress",
          "type": "address"
        }
      ],
      "name": "setFlashLoan",
      "outputs": [],
      "stateMutability": "nonpayable",
      "type": "function"
    },
    {
      "inputs": [
        {
          "internalType": "address",
          "name": "_flashLoanAddress",
          "type": "address"
        }
      ],
      "name": "setInitialAllowance",
      "outputs": [],
      "stateMutability": "nonpayable",
      "type": "function"
    },
    {
      "inputs": [
        {
          "internalType": "address",
          "name": "_lpTokenAddress",
          "type": "address"
        }
      ],
      "name": "setLpToken",
      "outputs": [],
      "stateMutability": "nonpayable",
      "type": "function"
    },
    {
      "inputs": [
        {
          "internalType": "address",
          "name": "_tokenAddress",
          "type": "address"
        }
      ],
      "name": "setToken",
      "outputs": [],
      "stateMutability": "nonpayable",
      "type": "function"
    },
    {
      "inputs": [],
      "name": "stake",
      "outputs": [
        {
          "internalType": "uint256",
          "name": "",
          "type": "uint256"
        }
      ],
      "stateMutability": "view",
      "type": "function"
    },
    {
      "inputs": [
        {
          "internalType": "bytes4",
          "name": "interfaceId",
          "type": "bytes4"
        }
      ],
      "name": "supportsInterface",
      "outputs": [
        {
          "internalType": "bool",
          "name": "",
          "type": "bool"
        }
      ],
      "stateMutability": "view",
      "type": "function"
    },
    {
      "inputs": [],
      "name": "tokenAddress",
      "outputs": [
        {
          "internalType": "address",
          "name": "",
          "type": "address"
        }
      ],
      "stateMutability": "view",
      "type": "function"
    },
    {
      "inputs": [
        {
          "internalType": "address",
          "name": "newOwner",
          "type": "address"
        }
      ],
      "name": "transferOwnership",
      "outputs": [],
      "stateMutability": "nonpayable",
      "type": "function"
    },
    {
      "inputs": [
        {
          "internalType": "address",
          "name": "",
          "type": "address"
        }
      ],
      "name": "userStake",
      "outputs": [
        {
          "internalType": "uint256",
          "name": "",
          "type": "uint256"
        }
      ],
      "stateMutability": "view",
      "type": "function"
    },
    {
      "inputs": [],
      "name": "withdraw",
      "outputs": [],
      "stateMutability": "nonpayable",
      "type": "function"
    }
  ],
  "transactionHash": "0xf98da9ed346077bd9855c6cdafc96e920cff44385cb05fcda3de97db6c8ba250",
  "args": [],
  "solcInputHash": "426b85d6d2ca726e20a7ece9d695fd03",
  "bytecode": "0x60806040526000600555601260065534801561001a57600080fd5b5061002b610026610030565b610034565b610084565b3390565b600080546001600160a01b038381166001600160a01b0319831681178455604051919092169283917f8be0079c531659141344cd1fd0a4f28419497f9722a3daafe3b4186f6b6457e09190a35050565b6114d1806100936000396000f3fe608060405234801561001057600080fd5b506004361061018e5760003560e01c8063715018a6116100de5780639d76ea5811610097578063b6b55f2511610071578063b6b55f25146102f9578063d547741f1461030c578063f2fde38b1461031f578063f5ae497a146103325761018e565b80639d76ea58146102d65780639ee933b5146102de578063a217fddf146102f15761018e565b8063715018a6146102855780638b0e188c1461028d5780638da5cb5b146102a057806391d14854146102a8578063931f0603146102bb578063940a4e45146102c35761018e565b8063313ce5671161014b5780633a4b66f1116101255780633a4b66f11461024d5780633ccfd60b146102555780634169467d1461025d57806368e5585d146102725761018e565b8063313ce5671461022a57806336568abe14610232578063392313dd146102455761018e565b806301ffc9a714610193578063063b0000146101bc578063144fa6d7146101d157806316ddba7d146101e4578063248a9ca3146101f75780632f2ff15d14610217575b600080fd5b6101a66101a136600461103e565b61033a565b6040516101b39190611144565b60405180910390f35b6101cf6101ca366004610fc1565b610367565b005b6101cf6101df366004610fc1565b6103a7565b6101cf6101f2366004610fc1565b610411565b61020a610205366004610ffb565b610472565b6040516101b3919061114f565b6101cf610225366004611013565b610488565b61020a6104ac565b6101cf610240366004611013565b6104b2565b61020a6104f8565b61020a61050a565b6101cf610510565b610265610699565b6040516101b391906110f3565b61020a610280366004610fc1565b6106a8565b6101cf6106ba565b6101cf61029b366004610fc1565b610705565b610265610855565b6101a66102b6366004611013565b610864565b6101cf61088f565b6101cf6102d1366004610ffb565b610918565b6102656109ef565b6101cf6102ec366004610fc1565b6109fe565b61020a610a5f565b6101cf610307366004610ffb565b610a64565b6101cf61031a366004611013565b610b6d565b6101cf61032d366004610fc1565b610b8c565b610265610bfa565b60006001600160e01b03198216637965db0b60e01b148061035f575061035f82610c09565b90505b919050565b60008051602061147c83398151915261038781610382610c22565b610c26565b506005546001600160a01b03909116600090815260076020526040902055565b6103af610c22565b6001600160a01b03166103c0610855565b6001600160a01b0316146103ef5760405162461bcd60e51b81526004016103e69061122f565b60405180910390fd5b600280546001600160a01b0319166001600160a01b0392909216919091179055565b610419610c22565b6001600160a01b031661042a610855565b6001600160a01b0316146104505760405162461bcd60e51b81526004016103e69061122f565b600480546001600160a01b0319166001600160a01b0392909216919091179055565b6000908152600160208190526040909120015490565b61049182610472565b61049d81610382610c22565b6104a78383610c8a565b505050565b60065481565b6104ba610c22565b6001600160a01b0316816001600160a01b0316146104ea5760405162461bcd60e51b81526004016103e690611264565b6104f48282610d12565b5050565b60008051602061147c83398151915281565b60055481565b6003546040516370a0823160e01b81526000916001600160a01b0316906370a08231906105419033906004016110f3565b60206040518083038186803b15801561055957600080fd5b505afa15801561056d573d6000803e3d6000fd5b505050506040513d601f19601f820116820180604052508101906105919190611066565b60035460405163079cc67960e41b81529192506001600160a01b0316906379cc6790906105c4903390859060040161112b565b600060405180830381600087803b1580156105de57600080fd5b505af11580156105f2573d6000803e3d6000fd5b505060025460405163a9059cbb60e01b81526001600160a01b03909116925063a9059cbb9150610628903390859060040161112b565b602060405180830381600087803b15801561064257600080fd5b505af1158015610656573d6000803e3d6000fd5b505050506040513d601f19601f8201168201806040525081019061067a9190610fdb565b6106965760405162461bcd60e51b81526004016103e690611206565b50565b6004546001600160a01b031681565b60076020526000908152604090205481565b6106c2610c22565b6001600160a01b03166106d3610855565b6001600160a01b0316146106f95760405162461bcd60e51b81526004016103e69061122f565b6107036000610d97565b565b61070d610c22565b6001600160a01b031661071e610855565b6001600160a01b0316146107445760405162461bcd60e51b81526004016103e69061122f565b60025460405163095ea7b360e01b81526001600160a01b039091169063095ea7b3906107789084906000199060040161112b565b602060405180830381600087803b15801561079257600080fd5b505af11580156107a6573d6000803e3d6000fd5b505050506040513d601f19601f820116820180604052508101906107ca9190610fdb565b5060025460035460405163095ea7b360e01b81526001600160a01b039283169263095ea7b392610803929116906000199060040161112b565b602060405180830381600087803b15801561081d57600080fd5b505af1158015610831573d6000803e3d6000fd5b505050506040513d601f19601f820116820180604052508101906104f49190610fdb565b6000546001600160a01b031690565b60009182526001602090815260408084206001600160a01b0393909316845291905290205460ff1690565b610897610c22565b6001600160a01b03166108a8610855565b6001600160a01b0316146108ce5760405162461bcd60e51b81526004016103e69061122f565b6004546108f39060008051602061147c833981519152906001600160a01b0316610de7565b6003546107039060008051602061147c833981519152906001600160a01b0316610de7565b60008051602061147c83398151915261093381610382610c22565b600360009054906101000a90046001600160a01b03166001600160a01b03166318160ddd6040518163ffffffff1660e01b815260040160206040518083038186803b15801561098157600080fd5b505afa158015610995573d6000803e3d6000fd5b505050506040513d601f19601f820116820180604052508101906109b99190611066565b6006546109c790600a611331565b6109d190846113ff565b6109db91906112cb565b6005546109e891906112b3565b6005555050565b6002546001600160a01b031681565b610a06610c22565b6001600160a01b0316610a17610855565b6001600160a01b031614610a3d5760405162461bcd60e51b81526004016103e69061122f565b600380546001600160a01b0319166001600160a01b0392909216919091179055565b600081565b6002546040516323b872dd60e01b81526001600160a01b03909116906323b872dd90610a9890339030908690600401611107565b602060405180830381600087803b158015610ab257600080fd5b505af1158015610ac6573d6000803e3d6000fd5b505050506040513d601f19601f82011682018060405250810190610aea9190610fdb565b610b065760405162461bcd60e51b81526004016103e690611206565b6003546040516340c10f1960e01b81526001600160a01b03909116906340c10f1990610b38903390859060040161112b565b600060405180830381600087803b158015610b5257600080fd5b505af1158015610b66573d6000803e3d6000fd5b5050505050565b610b7682610472565b610b8281610382610c22565b6104a78383610d12565b610b94610c22565b6001600160a01b0316610ba5610855565b6001600160a01b031614610bcb5760405162461bcd60e51b81526004016103e69061122f565b6001600160a01b038116610bf15760405162461bcd60e51b81526004016103e6906111c0565b61069681610d97565b6003546001600160a01b031681565b6001600160e01b031981166301ffc9a760e01b14919050565b3390565b610c308282610864565b6104f457610c48816001600160a01b03166014610df1565b610c53836020610df1565b604051602001610c6492919061107e565b60408051601f198184030181529082905262461bcd60e51b82526103e691600401611158565b610c948282610864565b6104f45760008281526001602081815260408084206001600160a01b0386168552909152909120805460ff19169091179055610cce610c22565b6001600160a01b0316816001600160a01b0316837f2f8788117e7eff1d82e926ec794901d17c78024a50270940304540a733656f0d60405160405180910390a45050565b610d1c8282610864565b156104f45760008281526001602090815260408083206001600160a01b03851684529091529020805460ff19169055610d53610c22565b6001600160a01b0316816001600160a01b0316837ff6391f5c32d9c69d2a47ea670b442974b53935d1edc7fd64eb21e047a839171b60405160405180910390a45050565b600080546001600160a01b038381166001600160a01b0319831681178455604051919092169283917f8be0079c531659141344cd1fd0a4f28419497f9722a3daafe3b4186f6b6457e09190a35050565b6104f48282610c8a565b60606000610e008360026113ff565b610e0b9060026112b3565b67ffffffffffffffff811115610e3157634e487b7160e01b600052604160045260246000fd5b6040519080825280601f01601f191660200182016040528015610e5b576020820181803683370190505b509050600360fc1b81600081518110610e8457634e487b7160e01b600052603260045260246000fd5b60200101906001600160f81b031916908160001a905350600f60fb1b81600181518110610ec157634e487b7160e01b600052603260045260246000fd5b60200101906001600160f81b031916908160001a9053506000610ee58460026113ff565b610ef09060016112b3565b90505b6001811115610f84576f181899199a1a9b1b9c1cb0b131b232b360811b85600f1660108110610f3257634e487b7160e01b600052603260045260246000fd5b1a60f81b828281518110610f5657634e487b7160e01b600052603260045260246000fd5b60200101906001600160f81b031916908160001a90535060049490941c93610f7d8161144e565b9050610ef3565b508315610fa35760405162461bcd60e51b81526004016103e69061118b565b9392505050565b80356001600160a01b038116811461036257600080fd5b600060208284031215610fd2578081fd5b610fa382610faa565b600060208284031215610fec578081fd5b81518015158114610fa3578182fd5b60006020828403121561100c578081fd5b5035919050565b60008060408385031215611025578081fd5b8235915061103560208401610faa565b90509250929050565b60006020828403121561104f578081fd5b81356001600160e01b031981168114610fa3578182fd5b600060208284031215611077578081fd5b5051919050565b60007f416363657373436f6e74726f6c3a206163636f756e7420000000000000000000825283516110b681601785016020880161141e565b7001034b99036b4b9b9b4b733903937b6329607d1b60179184019182015283516110e781602884016020880161141e565b01602801949350505050565b6001600160a01b0391909116815260200190565b6001600160a01b039384168152919092166020820152604081019190915260600190565b6001600160a01b03929092168252602082015260400190565b901515815260200190565b90815260200190565b600060208252825180602084015261117781604085016020870161141e565b601f01601f19169190910160400192915050565b6020808252818101527f537472696e67733a20686578206c656e67746820696e73756666696369656e74604082015260600190565b60208082526026908201527f4f776e61626c653a206e6577206f776e657220697320746865207a65726f206160408201526564647265737360d01b606082015260800190565b6020808252600f908201526e151c985b9cd9995c8819985a5b1959608a1b604082015260600190565b6020808252818101527f4f776e61626c653a2063616c6c6572206973206e6f7420746865206f776e6572604082015260600190565b6020808252602f908201527f416363657373436f6e74726f6c3a2063616e206f6e6c792072656e6f756e636560408201526e103937b632b9903337b91039b2b63360891b606082015260800190565b600082198211156112c6576112c6611465565b500190565b6000826112e657634e487b7160e01b81526012600452602481fd5b500490565b80825b60018086116112fd5750611328565b81870482111561130f5761130f611465565b8086161561131c57918102915b9490941c9380026112ee565b94509492505050565b6000610fa3600019848460008261134a57506001610fa3565b8161135757506000610fa3565b816001811461136d5760028114611377576113a4565b6001915050610fa3565b60ff84111561138857611388611465565b6001841b91508482111561139e5761139e611465565b50610fa3565b5060208310610133831016604e8410600b84101617156113d7575081810a838111156113d2576113d2611465565b610fa3565b6113e484848460016112eb565b8086048211156113f6576113f6611465565b02949350505050565b600081600019048311821515161561141957611419611465565b500290565b60005b83811015611439578181015183820152602001611421565b83811115611448576000848401525b50505050565b60008161145d5761145d611465565b506000190190565b634e487b7160e01b600052601160045260246000fdfe834df91b99d67c6bfe2c6a9bfc0e2798b938adfc27f5ec112bd058a4bb386594a2646970667358221220857173907efa6c74442b955368bc34ac6af85ada11420beb3e9e32a4efae468e64736f6c63430008010033",
  "devdoc": {
    "kind": "dev",
    "methods": {
      "getRoleAdmin(bytes32)": {
        "details": "Returns the admin role that controls `role`. See {grantRole} and {revokeRole}. To change a role's admin, use {_setRoleAdmin}."
      },
      "grantRole(bytes32,address)": {
        "details": "Grants `role` to `account`. If `account` had not been already granted `role`, emits a {RoleGranted} event. Requirements: - the caller must have ``role``'s admin role."
      },
      "hasRole(bytes32,address)": {
        "details": "Returns `true` if `account` has been granted `role`."
      },
      "owner()": {
        "details": "Returns the address of the current owner."
      },
      "renounceOwnership()": {
        "details": "Leaves the contract without owner. It will not be possible to call `onlyOwner` functions anymore. Can only be called by the current owner. NOTE: Renouncing ownership will leave the contract without an owner, thereby removing any functionality that is only available to the owner."
      },
      "renounceRole(bytes32,address)": {
        "details": "Revokes `role` from the calling account. Roles are often managed via {grantRole} and {revokeRole}: this function's purpose is to provide a mechanism for accounts to lose their privileges if they are compromised (such as when a trusted device is misplaced). If the calling account had been granted `role`, emits a {RoleRevoked} event. Requirements: - the caller must be `account`."
      },
      "revokeRole(bytes32,address)": {
        "details": "Revokes `role` from `account`. If `account` had been granted `role`, emits a {RoleRevoked} event. Requirements: - the caller must have ``role``'s admin role."
      },
      "supportsInterface(bytes4)": {
        "details": "See {IERC165-supportsInterface}."
      },
      "transferOwnership(address)": {
        "details": "Transfers ownership of the contract to a new account (`newOwner`). Can only be called by the current owner."
      }
    },
    "version": 1
  },
  "userdoc": {
    "kind": "user",
    "methods": {},
    "version": 1
  },
  "storageLayout": {
    "storage": [
      {
        "astId": 591,
        "contract": "contracts/Pool.sol:Pool",
        "label": "_owner",
        "offset": 0,
        "slot": "0",
        "type": "t_address"
      },
      {
        "astId": 24,
        "contract": "contracts/Pool.sol:Pool",
        "label": "_roles",
        "offset": 0,
        "slot": "1",
        "type": "t_mapping(t_bytes32,t_struct(RoleData)19_storage)"
      },
      {
        "astId": 3010,
        "contract": "contracts/Pool.sol:Pool",
        "label": "tokenAddress",
        "offset": 0,
        "slot": "2",
        "type": "t_address"
      },
      {
        "astId": 3012,
        "contract": "contracts/Pool.sol:Pool",
        "label": "lpTokenAddress",
        "offset": 0,
        "slot": "3",
        "type": "t_address"
      },
      {
        "astId": 3014,
        "contract": "contracts/Pool.sol:Pool",
        "label": "flashLoanAddress",
        "offset": 0,
        "slot": "4",
        "type": "t_address"
      },
      {
        "astId": 3017,
        "contract": "contracts/Pool.sol:Pool",
        "label": "stake",
        "offset": 0,
        "slot": "5",
        "type": "t_uint256"
      },
      {
        "astId": 3020,
        "contract": "contracts/Pool.sol:Pool",
        "label": "decimals",
        "offset": 0,
        "slot": "6",
        "type": "t_uint256"
      },
      {
        "astId": 3024,
        "contract": "contracts/Pool.sol:Pool",
        "label": "userStake",
        "offset": 0,
        "slot": "7",
        "type": "t_mapping(t_address,t_uint256)"
      }
    ],
    "types": {
      "t_address": {
        "encoding": "inplace",
        "label": "address",
        "numberOfBytes": "20"
      },
      "t_bool": {
        "encoding": "inplace",
        "label": "bool",
        "numberOfBytes": "1"
      },
      "t_bytes32": {
        "encoding": "inplace",
        "label": "bytes32",
        "numberOfBytes": "32"
      },
      "t_mapping(t_address,t_bool)": {
        "encoding": "mapping",
        "key": "t_address",
        "label": "mapping(address => bool)",
        "numberOfBytes": "32",
        "value": "t_bool"
      },
      "t_mapping(t_address,t_uint256)": {
        "encoding": "mapping",
        "key": "t_address",
        "label": "mapping(address => uint256)",
        "numberOfBytes": "32",
        "value": "t_uint256"
      },
      "t_mapping(t_bytes32,t_struct(RoleData)19_storage)": {
        "encoding": "mapping",
        "key": "t_bytes32",
        "label": "mapping(bytes32 => struct AccessControl.RoleData)",
        "numberOfBytes": "32",
        "value": "t_struct(RoleData)19_storage"
      },
      "t_struct(RoleData)19_storage": {
        "encoding": "inplace",
        "label": "struct AccessControl.RoleData",
        "members": [
          {
            "astId": 16,
            "contract": "contracts/Pool.sol:Pool",
            "label": "members",
            "offset": 0,
            "slot": "0",
            "type": "t_mapping(t_address,t_bool)"
          },
          {
            "astId": 18,
            "contract": "contracts/Pool.sol:Pool",
            "label": "adminRole",
            "offset": 0,
            "slot": "1",
            "type": "t_bytes32"
          }
        ],
        "numberOfBytes": "64"
      },
      "t_uint256": {
        "encoding": "inplace",
        "label": "uint256",
        "numberOfBytes": "32"
      }
    }
  }
}